:020000041000EA
:1000000000B5324B212058609868022188439860DF
:10001000D860186158612E4B002199600221596106
:100020000121F02299502B49196001219960352056
:1000300000F044F80222904214D00621196600F024
:1000400034F8196E01211966002018661A6600F04E
:100050002CF8196E196E196E052000F02FF8012189
:100060000842F9D1002199601B49196000215960AB
:100070001A491B48016001219960EB211966A021F2
:10008000196600F012F800219960164914480160C1
:100090000121996001BC002800D000471248134993
:1000A000086003C880F30888084703B5996A0420EC
:1000B0000142FBD001200142F8D103BD02B5186610
:1000C0001866FFF7F2FF186E186E02BD00000240BE
:1000D000000000180000070000035F00212200005C
:1000E000F4000018222000A00001001008ED00E03C
:1000F00000000000000000000000000074B24E7A12
:1001000000200420F7010010C3010010C5010010F9
:10011000C1010010C1010010C1010010C101001097
:10012000C1010010C1010010C1010010C701001081
:10013000C1010010C1010010C9010010CB01001065
:10014000CD010010CD010010CD010010CD01001037
:10015000CD010010CD010010CD010010CD01001027
:10016000CD010010CD010010CD010010CD01001017
:10017000CD010010CD010010CD010010CD01001007
:10018000CD010010CD010010CD010010CD010010F7
:10019000CD010010CD010010CD010010CD010010E7
:1001A000CD010010CD010010CD010010CD010010D7
:1001B000CD010010CD010010CD010010CD010010C7
:1001C00000BE00BE00BE00BE00BE00BEEFF3058054
:1001D000103800BEF2EB8871244B00104C4B00101D
:1001E0003402001090A31AE700201F49086006C8D7
:1001F00081F3088810471D48006800282FD10DA4FE
:100200000ECC002902D000F012F8F9E71849194A7B
:10021000002000E001C19142FCD1174988471749ED
:1002200088471749884700BEFDE701C901C29A42C5
:10023000FBD370474C4B0010C00000206812002018
:10024000F45C00100000042000000420F45C0010A6
:10025000001004200010042000000000704709482E
:1002600002F0D8FF0047000008ED00E0000000D0D9
:10027000681200207C170020191B001009030010D1
:10028000191C00105756000006005250ABB36053C3
:10029000C449001006005250861C0302D4490010C5
:1002A000060052505422A29DDC4900100500525015
:1002B000DE65F468F45C0010F8B5C04606480749EE
:1002C000091A8B10C90FC91810B5491003D0044B77
:1002D000002B00D0984710BD681200206812002043
:1002E00000000000054B10B5002B03D00449054861
:1002F00000E000BFFFF7E2FF10BDC04600000000B5
:100300003017002018470010F0B5C64600B504F0BD
:1003100075F81C2000F088F8D024802324065B05A3
:100320001B20636200F080F880231B050E206362AF
:1003300000F07AF88023DB0101220021A3620E2065
:1003400000F060F80D2000F06FF880239B01A3629D
:10035000012200210D2000F055F81B4803F0A2FFF8
:100360001A4B012598461A4F802676050DE06661E6
:1003700061683800090F294004F034F8FA2000F0D1
:1003800051FD63685B0B1D4209D163689B0B1D42E5
:10039000F7D063681B0F1D42E9D0A661E8E76368E8
:1003A000DB0E1D420CD180231B0563616168404652
:1003B000C90E294004F016F8FA2000F033FDD3E707
:1003C00080231B05A361F1E7184700104047001088
:1003D00020470010094A10B5944640248300634426
:1003E0001A68C000624080341440802252011343D6
:1003F0001C60034B9C466044416010BD04C001403A
:1004000000400140074B80009C4660440368C900DF
:1004100092000A435A400C231A4080235B01034395
:100420001A60704704C001400123D02283401206A5
:1004300093629361094A40219446830063441A6899
:10044000C0004A408031114080225201134319609C
:10045000034B9C46052360444360704704C0014041
:1004600000400140024B18688007C00F7047C0462B
:1004700000C0064070B5EFF3108C72B60D4D2B68BE
:10048000002BFCD0BFF35F8F0724CB08C618C05CDD
:1004900001230C40A3401C000440034207D1184331
:1004A0003070BFF35F8F2C608CF3108870BD10002C
:1004B00001F0B6FB2C0100D00021044B044ABFF32D
:1004C0005F8F02C39342FAD17047C046000100D04B
:1004D000800100D0044A1078431CDBB2172B00D9EE
:1004E000102313707047C046701000200123834012
:1004F000002904D0034A1360034A13607047034A7B
:100500001360FBE780E200E000E100E080E100E052
:10051000024B10309B688000C058704700ED00E02F
:1005200070B50D00EFF3108672B60F4A1368002BFA
:10053000FCD0BFF35F8F0D4B10309B6884001B59BC
:100540000B4A934203D09D4201D001F081FB074B3F
:100550009B681D51BFF35F8FBFF35F8F0022024B7B
:100560001A6086F3108870BD240100D000ED00E011
:10057000CD010010F0B5DE4657464E464546E0B583
:100580000C0083B0EFF3108972B6584A1368002B41
:10059000FCD0BFF35F8F564B9A68030010339F0067
:1005A000D559544A9046954232D0A54243D0524E36
:1005B000AA1B2F2A2CD801228240924651464F4A2C
:1005C00012681140019151464D4A1160BFF35F8F8F
:1005D000EFF305829346002A33D101232A009A4380
:1005E00093689C4208D177E04B005B189B00F3189E
:1005F0009968A1422AD01A00062151560029F3DA3F
:10060000019B002B19D052463E4B1A603B4B1A609F
:10061000374B9B68DD51BFF35F8FBFF35F8F0022C5
:10062000324B1A6089F3108803B0F0BCBB46B24667
:10063000A946A046F0BD1500EAE75246304B1A60C5
:10064000E6E79342C9D001F003FBC6E706215956FD
:10065000002921DB4A005018800034188046A06829
:100660009860E079D871062020569871002824DB24
:10067000A488F01A6405241544440019E0240005F8
:10068000400D2402204398801F4B52181878920086
:10069000B21890711970B3E7594600290FD1FF3194
:1006A00091711A49918018490A789A71184A9B1BCE
:1006B0005B415A43120D0A70A2E71648E3E7164A57
:1006C0001649D21A083A5002400D01439980144944
:1006D00052080A43DA8093E7062151561300002995
:1006E000B8DA5A46002AEAD14546DCE7240100D0B0
:1006F00000ED00E0CD0100107410002000E100E0EA
:1007000080E100E080E200E07917002001BDFFFFFA
:10071000AAAA000001BD0000AE10002000F0FFFFFB
:1007200000F8FFFF70B5EFF3058101240443EFF3F8
:10073000108C72B6214A1368002BFCD0BFF35F8F78
:100740001F4B05001F4AED1A6D416A43120D1E4DE5
:100750008900AE6852B27658A6421CD0062159567E
:1007600091421CD012215956914222D01E21595635
:10077000914220D02A2159560324914210D0134B84
:1007800019781A708171BFF35F8F00220B4B1A60CA
:100790008CF3108870BDAB680D4C5C50EFE7002403
:1007A0006100091989005B18FF2199710949998035
:1007B000E5E70124F4E70224F2E7C046240100D073
:1007C00074100020AAAA000000ED00E079170020B4
:1007D000CD01001001BDFFFF054B064A1360064A1C
:1007E000136053609360D3601361536193617047EA
:1007F0008080808000E400E004E400E0024B9C463E
:1008000061448900016070474000003410B5040065
:10081000FFF760FE01002000FFF7F0FFFF232371C8
:10082000BFF35F8F10BDC04610B50400FFF752FE46
:1008300001002000FFF7E2FFFF23A380BFF35F8FDB
:1008400010BDC04683680B4810B5844661446244BD
:100850001201090159189B185C684A6801209442EA
:1008600001D802D00020C0B210BD1A680B689A42AD
:10087000F9D8F7E7FFFFFF0F0A4B1968EFF3108075
:1008800072B60A68002AFCD0BFF35F8F1B68BFF303
:100890005F8F00221A6080F3108840BF0020002183
:1008A0007047C0465C170020F8B5574645464E468F
:1008B000DE46E0B599460CAB1C780DAB1B78070003
:1008C00090469A460568002C44D1AC7B002C3BD066
:1008D000660029683619033E89194B78AB73002BE3
:1008E00000D1EB7300238B704B700B702E4BE21812
:1008F000BB6812019B1842461A604A465A600A9A1F
:100900009A600B9ADA6000238B704B700B706B7BD4
:100910009B46002B32D022005946A8686B68984746
:1009200000281DD05B46584629685B005B448E1941
:10093000033BB070CA18CB5C002B00D073705B46D1
:1009400014706B735C451AD0F0BCBB46B246A94626
:10095000A046F8BD660029683619033E8919C5E727
:100960005B465B002A685B44033BD3189C7091197B
:10097000925D002A00D05A705B460B706C73424641
:100980004B46387D00F0C8FB051E02D05346002BB5
:1009900004D00E9B002BD7D01D70D5E721003868FE
:1009A00000F0E4FDF5E7C046FFFFFF0FF0B5DE46BF
:1009B00057464E4645460023E0B58BB00893694B39
:1009C0008200D45800239B46099000F01BFB62680C
:1009D00006000F00EFF3108572B61368002BFCD0F1
:1009E000BFF35F8F23689C465B7B9946002B00D149
:1009F00068E0A2685C4B90464B441B019844434618
:100A00001A685B6810001900801BB941002900DCDE
:100A100062E0099800F080FB002300229846002342
:100A20000692079300239A466368BFF35F8F5A4686
:100A30001A6085F310885346002B08D10028C4D1D2
:100A40000BB0F0BCBB46B246A946A046F0BD089B21
:100A5000414618024B461843D047626806000F0013
:100A6000EFF3108572B61368002BFCD0BFF35F8FD5
:100A7000002F4FDB33003B4302D02369002B65D1AD
:100A80002368D97B002906D01A68480041185218FB
:100A90004946033A51709A7B002A01D14A469A731B
:100AA0004A46DA734B46E168013BCA5C0132CA54DC
:100AB0005B4623616368BFF35F8F5A461A6085F314
:100AC000108882E7002300229846002306920793AD
:100AD000002300209A46A7E7002902D1002800D071
:100AE00097E70021604600F0BFFC43461A685B6848
:100AF0000692079343469B689A464346DB689846AE
:100B0000E3684B44013B1B7808931B0203432361BA
:100B1000002089E72369002BB2D0069A079B802129
:100B2000921BBB4109068B4202D301220F4B52425A
:100B30005946049101210391494602914146019190
:100B4000514620000091FFF7AFFEB1E700F05AFADE
:100B500032003B0012184B41802109068B42E7D33B
:100B6000E3E7C04648170020FFFFFF0FFFFFFF7FAE
:100B700010B5144C6368002B04D00A211248FFF70B
:100B80003DFE10BD2300114A1021206800F080FBBB
:100B9000032000F02BFA032000F028FB03200C496F
:100BA00000F074FAFFF796FC0A4B9C46032323756A
:100BB000D0231B061B6860446375074B8000606090
:100BC000DC60DAE7BC1000205C170020450800104C
:100BD000AD0900104000003448170020F0B557461A
:100BE0004E46DE464546E0B585B0019310AB1B7816
:100BF0000700039300239A46994600927A68EFF320
:100C0000108B72B61368002BFCD0BFF35F8F3D686A
:100C1000AC7B002C00D17CE066002B683619033ECB
:100C20009B195A78AA73002A00D1EA734A4AA1187C
:100C3000BA680901521800980199106051600E9924
:100C400091600F99D1604A469A705A701A706B7B06
:100C50009846002B00D16CE022004146A8686B68E2
:100C60009847002857D04346404629685B004344D4
:100C70008E19033BB070CA18CB5C002B00D0737088
:100C8000434614706B73444554D0FB681B19013BF9
:100C900018787B68BFF35F8F4A461A608BF3108821
:100CA000002C56D05346002B08D10002204305B03B
:100CB000F0BCBB46B246A946A046F0BD039B002B44
:100CC00045D00E9B00200F999847030004000D00AB
:100CD0000B433CD0002911DA009A019B121BAB4157
:100CE0000092019380221206934204D301231B4CED
:100CF0005B4200930194039B9A467FE700F082F9E0
:100D0000802224184D411206009401959542F2D399
:100D1000ECE70020BDE743465B002A684344033B01
:100D2000D3189C709119925D002A00D05A704346E6
:100D30000B706C73387D009A019B00F0EDF98246D0
:100D40000028A2D02100386800F010FC9DE70020A8
:100D5000ADE701204042AAE7FFFFFF0FFFFFFF7F43
:100D6000F0B504000D0006267642F717C646361980
:100D70006F4100B584B08F4214D811D000F042F911
:100D800032003B00121A8B41002B15DC002B3ED0A9
:100D90002000290000F06AF904B080BCB846F0BD1C
:100DA0008642EBD90026002700F02CF932003B00E8
:100DB000121A8B41002BE9DD002302930193154B9E
:100DC0003200009314483B00FFF708FF0028DFDBE8
:100DD00000239846BC46114A114F7B6A9C4504D8B3
:100DE000B96A8E42D4D99C45D2D11168EFF31080F4
:100DF00072B60B68002BFCD0BFF35F8F1368BFF394
:100E00005F8F4146196080F3108820BFE5E7002A14
:100E1000BED0D1E779080010BC1000205C1700207C
:100E20000040054070B5060000F0ECF8FA2204001E
:100E30000D00002330000021920003F063F88023AE
:100E4000001969411B06994202D301200249404220
:100E5000FFF786FF70BDC046FFFFFF7FF0B5EFF3E1
:100E60000583CE46474680B505000C0085B0002BB3
:100E700012D02C4A0020536A9C4203D8926A013057
:100E8000AA4204D305B0C0BCB946B046F0BDE31ACF
:100E90005A1E9341D8B2F5E7234E02930193234B98
:100EA0000200009330000B00FFF798FE031EE0DD08
:100EB00020BF7168EFF3108772B60A68002AFCD071
:100EC000BFF35F8FDAB294463068427B62451CD034
:100ED000FF2201681A4089465100884649469044DD
:100EE000414403398978002912D0F1681B0A8A1815
:100EF000013A1278DBB29A420FD07368BFF35F8F6A
:100F000000221A6087F31088B3E7FF221A40ECE74B
:100F100032699342F1D13161EFE7614600F026FB7F
:100F2000EBE7C04600400540BC10002079080010E7
:100F3000F0B5EFF30582D6464F4646461000C0B5E1
:100F40001038EFF3108872B6214C2368002BFCD0C8
:100F5000BFF35F8F0123190081401E4D1F0069639D
:100F6000AA461D4D29601D4D2E78AC463500C54062
:100F70002F402B4209D1BFF35F8F276088F3108881
:100F8000E0BCBA46B146A846F0BD53465F6A144B72
:100F90008500EB589F420ED36246124B8E43EB58AE
:100FA0001670BFF35F8F0022226088F31088002B39
:100FB000E6D09847E4E70C4B92009C4662441368E5
:100FC0001360BFF35F8F0023236088F31088D7E797
:100FD000280100D0004005403C7005407A170020F1
:100FE00060170020A0160020D03F054010B5034B2D
:100FF00001001800024AFFF73DFA10BD78170020E3
:1010000060470010034B596A0A00986A596A8A427D
:10101000FAD170470040054070B504000D00124A37
:10102000536A1900966A536A8B42FAD1300019004C
:1010300024184D41AB4211D80ED02B000A494A6A00
:101040009A42FCD307D1084A02E0516A994202D180
:10105000916AA142F9D370BDA642EED901230124C1
:101060006442E5175B42E9E700400540064A536ADF
:101070009942FCD807D1044B02E05A6A914202D14E
:101080009A6A8242F9D370470040054070B5040067
:101090000D00EFF3108672B61A4A1368002BFCD0CD
:1010A000BFF35F8F002D1BD02000FFF731FA1649E8
:1010B00081420AD02000FFF733FA01212000FFF718
:1010C00015FA0123A340114A1360114BA400E55007
:1010D000BFF35F8F00220B4B1A6086F3108870BD40
:1010E0000121A1400A4BA200D5500A4B20001A78DA
:1010F0008A4305491A70FFF73DFA00212000FFF7E7
:10110000F5F9E5E7280100D0310F001038600540FF
:10111000A01600207A170020F0B54F46D646464666
:10112000C0B507002C4C616A0D00A66A616AA9422D
:10113000FAD18B4208D805D00120E0BCBA46B146AE
:10114000A846F0BDB242F7D9EFF3108A72B6234831
:1011500001680029FCD0BFF35F8F0125BD40204905
:101160001D4C8846097889462943C9B28C464146B8
:1011700060460870391D890065630A511949B80035
:101180004350216A0020294219D0616A0800A66AEA
:10119000616A8142FAD18B4219D801D1B24216D884
:1011A000CC4516D00C4B1F221D625D6301233A40D3
:1011B00093400D4A0120136043464A461A70BFF31C
:1011C0005F8F0022054B1A608AF31088B5E7002074
:1011D000F5E70120F3E7C04600400540280100D0B4
:1011E0007A1700206017002080E200E0EFF3108CF7
:1011F00072B60A490B68002BFCD0BFF35F8F012346
:101200008340074A0748136202789A430270BFF38B
:101210005F8F00230B608CF310887047280100D08B
:10122000004005407A17002070B505001400160034
:10123000002915D00C00002A12D080686B689847EE
:10124000296800280ED073009B196200033B121915
:10125000CB18033A9C7088188A5C002A15D1067056
:10126000200070BD63001B197200033B9219CB185C
:10127000033A9E7088188A5C002A02D104703400F8
:10128000EEE75A7004703400EAE75A700670E7E738
:1012900030B583600023CCB24373013304734260E2
:1012A0008373C4730D000068012C06D9421C0133FE
:1012B000DBB2137003329C42F9D1FF2129404B006D
:1012C0005B18C01800230338437030BDF8B5050023
:1012D0000C1E07D0630001681B19033BCB185A781A
:1012E000002A01D12000F8BD5000801803380918E9
:1012F00000204F784870210058702800FFF794FFB5
:10130000390006002800FFF7E1FF0400002EE9D0B5
:10131000002826D031002200A8686B689847296809
:1013200000280FD063001B197200033B9219CB18E1
:10133000033A9E7088188A5C002A00D05A700470A4
:101340003400CFE773009B196200033B1219CB18DE
:10135000033A9C7088188A5C002A00D05A70067084
:10136000C0E73400BEE7C046F0B557464546DE4606
:101370004E46E0B50D006B0001685B19DF1E0400EE
:10138000C85D83B00192CA19002850D043001B18D1
:10139000033BCB185E78B446002E1AD1019E002E76
:1013A00042D0E67B002E04D073009B19CB18033B80
:1013B0005D70A37B002B00D1A573E57300282FD1AE
:1013C0000023537003B0F0BCBB46B246A946A0460A
:1013D000F0BD72006244033A8A18517888460021B1
:1013E000517089465970320001002000FFF71CFF40
:1013F00043468246002B07D05B0021684344033BF1
:10140000CB185A78002A16D1424651462000FFF7E1
:101410000BFF2168019BCA19002BC2D10028CFD035
:1014200043001B18033BCB1800219970C8E7019BB0
:10143000002BB6D1C4E7500080180338091848784B
:10144000834648464870587041462000FFF7ECFE3E
:10145000594680462000FFF739FF41460200200030
:10146000FFF7E2FE8046CFE7F0B557464546DE4639
:101470004E46E0B583B00191457B04006B000068E7
:101480005B19DF1EC15DC219002952D04B005B18E9
:10149000033BC3185E78B446002E1CD1019E002E7B
:1014A00044D0E67B002E04D073009B19C318033B85
:1014B0005D70A37B002B00D1A573E573002931D1AA
:1014C000002328005370617303B0F0BCBB46B246E2
:1014D000A946A046F0BD72006244033A82185078D3
:1014E0008046002050708146587032002000FFF77F
:1014F0009BFE43468246002B07D05B002168434495
:10150000033BCB185A78002A17D142465146200097
:10151000FFF78AFE019B01002068C219002BC0D191
:101520000029CDD04B005B18033BC31800209870F6
:10153000C6E7019B002BB4D1C2E7500080180338E6
:10154000091848788346484648705870414620003C
:10155000FFF76AFE594680462000FFF7B7FE414676
:1015600002002000FFF760FE8046CEE770B5040061
:1015700000292CD0437B8B422ED0056848004018B0
:10158000033828188278002A21D053009B18033B87
:10159000EA5CEE188A4202D11BE0002A08D0530010
:1015A0009B18033BEB185A788A42F6D142785A705E
:1015B00000230122837043702000FFF7D5FE617B7A
:1015C00002002000FFF730FE6073012000E00020E1
:1015D00070BD43783370EBE701221900FFF7C4FEBA
:1015E00060730120F4E7C046F8B5CE4647460400D4
:1015F00080B506200E0000F01DFA051E51D0524B9A
:101600005249E21853425A418023DB039C4692051B
:101610004F4B62441A604F4B1A6010008B6898431E
:10162000FBD1494B4C4AE31859424B4180215B00A6
:1016300049009952062000F0FDF93100C00001F088
:1016400043FEC30932D14022012190466162A36268
:10165000256BEB0736D427008026E36A00232C375E
:1016600076013E4333600620256300F0E3F94146EE
:10167000800001F029FE236B05009846DB073BD470
:101680006023E26A5A400E331340336043462363BB
:10169000802310229B013B431A60304B23630323BA
:1016A000A3642800C0BCB946B046F8BD2C4A93429A
:1016B0003FD900232B492C4A6162A362256B9046D7
:1016C000EB07C8D52200C02330329B011343234AC5
:1016D00006201A60666AA36AB601F61800F0AAF935
:1016E000224901F0F1FDB6020100300001F0ECFDED
:1016F0000021FFF791FCAEE72200C02330329B01AE
:101700001343164A06201A60636AA26A9B0199462F
:10171000914400F08FF94B4614499B02994601F021
:10172000D3FD0100484601F0CFFD0021FFF774FC16
:10173000A6E77F229901884602400132520819002B
:101740009044130082E7C0460080FCBF00C0004008
:1017500000E0004000F0004070170020010300008E
:10176000FEFF0000FFFF0000C0FF3F004E0E000024
:1017700010B50C2082B000F0B3F9FEF773FE00281C
:101780000ED08A4B8A4A1A605A609A60DA601A61EF
:101790005A619A61DA611A62864A5A6202B010BDD1
:1017A000854CA06700F0A4F90122844B1A60636C99
:1017B000012BFCD10322824B1A607F4A936B012BD1
:1017C000FCD1013301217F4A7F480093043300F0AC
:1017D00037F905237D4A009301217D4800F030F957
:1017E0007C4B5A68FF2A02D8802252005A6080221D
:1017F000734B6E4C12011A602169002907D0606991
:1018000001F062FD013043001B18033BFDD2E022D2
:10181000704B714819680A400260022219685140F1
:1018200001320A40042102609A681142FCD08021F2
:101830006A4A09011160802252005A60684B236194
:10184000684B5968FF2900D85A60032201215B4B7D
:101850001A60644A93681942FCD0E0231068034080
:1018600061480360126803234A40022113405D4A25
:10187000036093681942FCD080215C4B0901196018
:1018800080215B4B4900516063615A4B5A68FF2AC3
:1018900000D859608022584B12011A60E169002972
:1018A00007D0606901F010FD013043001B18033BB5
:1018B000FDD2E0234F4A11680B4050490B60802154
:1018C0004F4B090119608021394B49005160E36198
:1018D0004C4B5A68FF2A00D8596080224A4B1201AB
:1018E0001A60216A002907D0606901F0EDFC01301F
:1018F00043001B18033BFDD2E023424A11680B4012
:1019000042490B608021424B0901196080235B0032
:1019100053608022264BD20223623E4B596891428B
:1019200000D25A6080223C4B12011A60616A002981
:1019300007D0606901F0C8FC013043001B18033B6D
:10194000FDD2E023334A11680B4034490B608021FB
:10195000334B090119608023DB025360154B63622E
:10196000304B5A68FF2A02D8802252005A608022E7
:101970002D4B12011A60A169002907D0606901F09E
:10198000A3FC013043001B18033BFDD2E023254A92
:1019900011680B4025490B608021254B0901196016
:1019A00080235B005360124BA361F7E6B81600205A
:1019B000006CDC021BB70000008000403CB000401F
:1019C00030B00040002F685900800240008C8647EC
:1019D00000C00240308000403090004030A0004005
:1019E000001BB7003C8000403C9000403CA0004001
:1019F000405973075480004054B000405490004058
:101A000054A000406080004060B000406090004002
:101A100060A000406C8000406CB000406C900040C2
:101A20006CA000404880004048B000404890004012
:101A300048A00040014B8000C0587047B8160020F5
:101A4000F8B5040021481D0017000E0001F03CFC11
:101A50000100380001F038FC069B29041B031943E0
:101A60002368002B20DB1A4B1A4DE21853425A41CF
:101A700080235B019C461203174B62441A60174B8C
:101A80001A601700AB689F43FBD1C022231D92014F
:101A90001A4321232660A06013602368002BFCDA20
:101AA0000823E1601360F8BD3F2322681340B3426E
:101AB000D9D1A3681B051B0D8342D4D1EE22E36864
:101AC000D20213408B42CED1EDE7C046001BB700D7
:101AD0000040FDBF00C0004000E0004000F00040BA
:101AE0008023024A9B000343D36270470080054075
:101AF000AA23064A1B0113602F230549D360054B17
:101B000019605368002BFCDA7047C0460040024061
:101B100000B0FA00006002402C4B2D4A70B51A60EC
:101B20002C4A2D4B2D491A6014008B689C43FBD125
:101B30002B4D2C4EB54208D2013E761BB60808CD7F
:101B4000984723000134B342F9D1FFF711FE264A2A
:101B5000214B1A60214A9368DB43DB01DD09002B2E
:101B6000F9D14022214B224C224E9A675A671A67BC
:101B7000DA66B44208D223682000002B20D0083453
:101B8000FEF752FEB442F6D31B4C1C4EC022B16885
:101B9000200002F021FAB460FEF78EFCFEF71CFE76
:101BA000FEF7E6FF164C174EB44208D2013E361B34
:101BB000B60808CC98472B0001359E42F9D170BD7C
:101BC0000834FEF723FEB442D5D3DDE700E0004041
:101BD000BFCDFBFEFE7F3C0000F0004000C0004097
:101BE0005412002064120020FFFFFF0100F00140AA
:101BF0004C120020541200200000002000ED00E0F4
:101C0000641200206812002000BEFDE7002070472B
:101C1000012040427047C04610B5FFF7F5FFC046AF
:101C20000FB400B5084883B002F03CFB049B002BC6
:101C300007D005A91800019101F0CCFA034802F081
:101C400031FB0120FFF7E0FF8447001094470010AC
:101C500010B50148FFF7E4FF984700107047C046F1
:101C6000F8B557464546DE464E46E0B598460A9BCF
:101C700006009A460D9B0F00934615009B0710D156
:101C80000B9B0C9A93420CD213005C460B9A9D1A44
:101C90005D4422004346013439002020B047A5426C
:101CA000F7D10B9C6319002C09D01D0053462A1B49
:101CB000013C185D39004346B047002CF6D10D9B1E
:101CC0009B070ED55B46EC1A0C9BA34209D999469B
:101CD0002A004346390020200134B0470135A14590
:101CE000F6D82800F0BCBB46B246A946A046F8BDCF
:101CF000F0B54F464646D646C0B584B098460EABC2
:101D00001B78129F994694460D9C109B119EBA0712
:101D100025D4002E61D19C4200D3C0E001223A407C
:101D200092461F2C00D9B9E00C9A551E302201E0D2
:101D3000202C03D001342A55A342F9D85246002A58
:101D40000DD0A6420BD90C9A551E3022202C02D160
:101D500055E0202C53D001342A55B442F9D1FA066B
:101D60002DD57A0554D4002C4ED10F9B102B00D1C9
:101D700088E00F9B022B19D030230C9A012413709A
:101D80004B46002B20D02D230C9A135501340C9B6D
:101D9000624600930397434602960194FFF760FF63
:101DA00004B0E0BCBA46B146A846F0BD01240C9A86
:101DB0006033137030220C9B1B191A700134202CD5
:101DC000E5D04B46002BDED17B0730D43B07DED578
:101DD00020230C9A13550134D9E7012215003D4008
:101DE000AA463A421CD04A46002A2BD10C323A422B
:101DF00028D19C42A5D21F2C96D9202E15D920245B
:101E0000FA06C4D57A0503D4A3421DD0B4421BD030
:101E10000F9B102B23D0022B0ED0202CB7D0C9E75C
:101E20009C429CD21F2C00D87EE7202497E72B23CE
:101E30000C9A13550134AAE7202CA8D00C9B1B192F
:101E4000013438E0013ED4E7631E012C00D18CE759
:101E50000F9A102A25D0022A2AD01C00AAE7BB0616
:101E600007D4202C93D00C9B1A19013478231370BB
:101E7000D3E7202C00D18AE758220C9B1B191A703B
:101E80000134CAE7BB0604D478230C9A01241370EA
:101E900090E758230C9A012413708BE72024002626
:101EA0005DE7023CBA06E7D40C9A12191C00DDE784
:101EB0000C9A9246534462221A70AEE710B500287D
:101EC00000D110BD02F0A2F9FBE7C0460B0010B52F
:101ED000002802D049681B68984710BDF0B5DE465F
:101EE00057464E464546E0B59BB09B46249B8946E7
:101EF0009846259B0B900C924046424619009A4604
:101F000001F0ABFC002800D0D8E001224046514649
:101F1000774B524201F09CFC002800D0CEE0012219
:101F200040465146734B524201F07CFC002800D0E1
:101F3000C4E0002200234046514601F073FC002813
:101F400000D0B9E1424653460A9209938023289A69
:101F5000DB001A400E92289A1A4201D106232693DA
:101F60000A9A099B1600134300D0C7E0289B00255E
:101F700000261B0500D49BE100230D93269A0D9BA0
:101F80009A4200DC9FE1D31A013B26938023289AD2
:101F9000DB001A430023002728920D93279B00247F
:101FA000BB4200D9DC1B0223289A1A400E92289AC1
:101FB000134203D07B427B415B421C400D9B002BB4
:101FC00007D00A9809992A00330001F0CAFB0A9049
:101FD0000991002200234046514601F023FC0028CD
:101FE00005D0802000068446099961440991289A09
:101FF000414B0B9D13400493269B0A9A0293099B25
:1020000003940092019349465B4628000C9A00F025
:102010008BF90400002F62D0289B220098061F2312
:10202000C0179843631C984649465B466530A847ED
:102030000D9A0025D317D4185C40D30F9A46013F60
:1020400001E0202D13D00AAA94461F2320006344E8
:102050000A2101355E1901F037F930313170200065
:102060000A2101F031F926000400092EE9D80523E0
:102070000693002304930A330393534605970B9F5B
:10208000029312AB009342465B46494638000195E5
:10209000FFF72EFE0E9B0400002B20D00C9BC51AD0
:1020A000279BAB421BD91E0022005B4649462020DD
:1020B0000135B8470134AE42F6D810E0289B4246BD
:1020C0000493279B49460393269B0B980293534600
:1020D000009201935B460C9A00F026F90400200060
:1020E0001BB0F0BCBB46B246A946A046F0BDC046F8
:1020F000FFFFEF7FFFFFEFFFFFF7FFFF734B099F2E
:102100009C467800400D604401F0BAFB704A714B68
:1021100001F045FB704A714B01F01AFB3B03704A1A
:102120001B0B1A4304000D00300011006D4B002200
:1021300001F005FB6C4A6D4B01F031FB02000B0016
:102140002000290001F004FB01F0B2FB0D9001F02A
:1021500097FB674A674B04000D0001F020FB00224B
:10216000654B01F0F5FA01F0A3FB644A0600644BED
:102170002000290001F013FB040030000D000F9631
:1021800001F07EFB5F4A604B01F009FB02000B008F
:102190002000290001F0D3FA02000B0006000F0016
:1021A00001F0FDFA320004000D003B003000390060
:1021B00001F0CEFA002210901191544B200029001A
:1021C00001F0CFFA0022524B01F0C2FA02000B00DC
:1021D0002000290001F0C5FA00224E4B01F0B8FAA8
:1021E00002000B002000290001F0BBFA0D00802145
:1021F000040032003B000020C90501F0A0FA0200F3
:102200000B002000290001F0A3FA02000B00109837
:10221000119901F0A6FA0022314B01F099FA3E4BD8
:102220000F9C9C4664440022230501F0B8FA050087
:102230000E0002000B000A98099901F0F3FA002839
:102240000AD00D9B2800013B31000D930022304B3A
:1022500001F087FA05000E00C6270D992B006331A7
:102260008F42BF4128997F420437090500D495E683
:10227000334300D182E6099C284A2100284B0A9862
:1022800001F0DEFA002808D000222100254B0A9830
:1022900001F0C8FA002800D070E6269B002B00D180
:1022A0007CE60E9B5A1E9341269AD31A269375E616
:1022B000002304270D9371E643460A9380231B06EF
:1022C0005344099342E6002326935FE601FCFFFF97
:1022D000FB799F501344D33FB3C8608B288AC63F15
:1022E0000000F03F0000F83F61436F63A787D23FD3
:1022F00071A379094F930A400000E03F1655B5BB22
:10230000B16B0240EF39FAFE422EE63F00002C404E
:102310000000244000001840FF0300002D431CEB88
:10232000E2361A3F80842E41F0B54E46DE465746CF
:102330004546E0B597B09946209E219F229B834653
:10234000984607910C923B0032003000390001F0B2
:1023500084FA002800D0ADE1012230003900CC4BD6
:10236000524201F05FFA002800D003E10122300060
:102370003900C84B524201F06BFA002800D0D9E076
:10238000002230003900C44B01F062FA002800D06E
:10239000BBE0002230003900C04B01F043FA0028B6
:1023A00000D0B2E0002200233000390001F03AFAF8
:1023B000002800D0D3E000230D93249B5B0501D4BB
:1023C0000623984608AB9C4617220024302341463A
:1023D000624404E0013413550139202C01D009294D
:1023E000F8D888463000390001F062FA4246AC4B1A
:1023F000D2009B181A685B6805000892099301F0E7
:102400003FFA02000B003000390001F098F9089AF9
:10241000099B01F0C4F90A900B9101F06DFA824614
:1024200001F02AFA02000B000A980B9901F087F9D3
:1024300000229C4B0A900B9101F00AFA002800D16F
:10244000E2E001239C46E244504601F015FA020006
:102450000B000898099901F0EBF9002802D000233D
:102460009A4601354346002B00D18BE008AB172676
:102470009C4608956644554614E001235B4243445C
:102480000A2128009A4600F01FFF01343031371925
:10249000397028000A2100F017FF092D00D8D0E07C
:1024A000D0460500202CE8D10EAB98460323249A91
:1024B0001340012B00D0E8E0239A2023002A1DD0EE
:1024C0000D9A002A00D0FDE024990C320A4215D062
:1024D000239A013A2392239A9A4200D805E108AA46
:1024E0009446172130226144202B07D023980133D2
:1024F000CA54834200D1E9E0202BF7D1249A0193FA
:102500000392239A434602921EE0249B584604936A
:10251000239B00960197039343460C9A02930799D5
:102520004B46FFF7DBFC17B0F0BCBB46B246A946F2
:10253000A046F0BD249B5B070ED403225A4B24997E
:102540000192039123990291009358464B460C9AAD
:102550000799FFF785FBE6E70422544BEFE73B00C2
:1025600032000020002101F0EAF8012306000F00EC
:102570000D9322E7249B0393239B0293042301934F
:102580004B4BE1E7280001F07BF902000B00300023
:10259000390001F0D4F8434B002206000F0001F08F
:1025A00041F90EAB984600280AD1002230003900CC
:1025B0003C4B01F04DF9002802D1EB0700D5013565
:1025C000202C00D172E708AA944617232800634400
:1025D0000A2101341E1900F04FFE303128003170FD
:1025E0000A2100F049FE051EEAD10323249A134074
:1025F000012B6DD0202C48D00D9B002B14D02D2208
:102600004146631C0A5579E700220A980B99254B2D
:1026100001F008F9002800D024E75346002B30D100
:1026200001239C46E2441DE7249B5B0724D4249AA3
:102630002300120700D461E72022414601330A55E6
:102640005CE75746089D202C00D12DE72200302161
:102650004046002F09D00132B154202A00D123E78F
:10266000831A013BE318002BF5D10EAB98462E23BD
:102670004146541C8B54A3E72B224146631C0A5548
:102680003CE7DB0700D4EDE6CAE7202336E7C04687
:10269000FFFFEFFFFFFFEF7F65CDCD4165CDCDC1E2
:1026A000584900100000E03FAC470010A44700105C
:1026B000B4470010249B0393239B029303230193AD
:1026C0000C4B41E7239A013A239217E7040091E764
:1026D000239B002B8ED00D9B002B08D10C2224991C
:1026E0002300114200D1F6E6F2E61C0082E7230047
:1026F000EEE6C046B0470010F0B5DE4657464E46FF
:102700004546E0B5A1B01C002A9B92460993B94A00
:10271000B94B81468B461A60002900D12BE1207805
:102720000027002800D12DE1B44B5E460893B44B3E
:102730000C9309E03A00534631007D1CC8472F0036
:1027400001342078002871D02528F3D110239B462E
:102750000C3B9846023B00229C4601342078250021
:102760000300203BDBB2102B03D808999B00CB5809
:102770009F460300303B092B6BD9002398462A283B
:1027800000D18AE000230A932E2800D176E00300CE
:10279000683BDBB2122B1CD89A499B00CB589F4652
:1027A000012301341A43D9E7634601341A43D5E7BC
:1027B000434601341A43D1E75B4601341A43CDE75F
:1027C000082301341A43C9E780235B0068781A4361
:1027D000013567280AD824281DD90300253BDBB220
:1027E000422B18D80C999B00CB589F460300693B9D
:1027F000DBB20F2B0FD80121834C9940A4460C402B
:102800000B946446214200D002E20A2B00D1E1E0A1
:10281000072B00D1B8E07B1C98463A0053463100A4
:102820006C1CC8472078474600288DD1B3463C0031
:10283000BA4501D853465F1E53463A005946002018
:10284000C847200021B0F0BCBB46B246A946A0460E
:10285000F0BD002301009800C01801354000401869
:102860002978030008003038303B0928F3D998460E
:10287000002308000A932E2800D088E78023687878
:10288000DB001A430300303B691C092B00D807E129
:102890002A2800D116E10D0079E7099B02CB884672
:1028A000002903DB60780993651C6BE702210A436A
:1028B00041464942884660780993651C62E768781A
:1028C0006C2800D123E280235B001A43013580E7A6
:1028D00080239B0068781A4301357AE76878682876
:1028E00000D11AE2802301351A4372E7462800D14D
:1028F0008BE10721099B0492424607338B43190061
:1029000003920A9A484602920CC9009201930991D7
:102910003A0053463100FFF707FD6C1C070010E733
:102920007B1C98463A00534631002520C84747464D
:102930006C1C06E7920700D431E2099B3A0001CBF8
:1029400031009B46C0B25346C84743467C1C4744AF
:10295000012B00D8FBE2A8464D4622005346013425
:1029600031002020A847BC42F7D1A9465B46454626
:1029700009936C1CE5E6254B207899460027002832
:1029800000D0D1E6002453E7099B190008C9884606
:10299000002B00D1A6E021210A43934610A98C46C2
:1029A0001F220F21624409958C4615000B9C02E002
:1029B000202C0CD013006046184001003731092844
:1029C00000D80739013429551A090F2BF0D8099D71
:1029D0000B9490E0099B02CB12930A9B8B46002B31
:1029E0007AD108780221494200281AD001315C4688
:1029F00059440FE0F92600102C170020BC470010A6
:102A00004C48001000480010419000005D1C001070
:102A10008C4203D063780134002BF9D15B46E31A72
:102A20000B9380231100DB00194009911A4204D056
:102A30000A9B0B99994200D90B930223190011406C
:102A40000D91134200D18BE1002800D173E1099B65
:102A5000002B00D142E10A9B3A009C465B46BC44F5
:102A6000DB1B64469B464B460994A9461D0009E0C2
:102A700053463100571CA8475B46D85D002800D15B
:102A800055E13A009442F3D12B004D469946099FF7
:102A90000D9B002B00D04EE1129B6C1C099350E65D
:102AA000002304009800C0180131400000190C7880
:102AB000030020003038303B0928F3D920000D00F6
:102AC0000A9364E6099B023501CBC143C91708404C
:102AD0000A90099328785AE608780028A1D00A9B22
:102AE000591E83E7102110008843113108438346A3
:102AF000520500D452E75B460693082305930A9BD0
:102B00003A00049310230393002302930B9B31009C
:102B1000019318AB009348465346FFF7E9F8434644
:102B200007006C1C09930CE62023010099434729F8
:102B300004D180231B011A4302239843452801D165
:102B400020231A430721099B0492424607338B43F3
:102B5000190003920A9A484602920CC90092019306
:102B600009913A0053463100FFF7B8F96C1C070091
:102B7000E7E5622800D1F6E16F2800D132E158285C
:102B800000D1CFE010239A43063B0D93692800D073
:102B900024E10B92530546D501230B9A9A430B92DD
:102BA000692840D064283ED00B9A802311009B00F6
:102BB00019408B461A4200D0DCE1802314005B00F0
:102BC0001C401A4200D07BE213005B0600D48BE16C
:102BD000FF22099B02CB11408B4609935B46002BD9
:102BE00000D08CE10B9A1033110099430B915205E0
:102BF00000D484E100240B9B0693434605930A9B73
:102C000004930D9B0393002361E120231A4370E694
:102C100010230D937828ACD10C23110099430B910C
:102C20005205B9D4BCE70B9A802311009B001940D0
:102C30008B461A4200D0D8E0802314005B001C4071
:102C40001A4200D0E2E113005B0600D527E1130031
:102C500009991B0600D495E208C91BB2D8171A18A7
:102C6000424092B209919346DA0F1392002B09D198
:102C7000802310220B99DB000B4091430B91002B1A
:102C800000D01BE10B9A6123920600D54123DBB2F1
:102C900010A90A3B1F228C46129343466244A84661
:102CA00014970D9D5F461593B34616000AE0303326
:102CB000DBB201343355AF4200D24EE1202C00D1BB
:102CC0004BE107002900380000F0FEFACBB20929D9
:102CD000EDD9129A94466344DBB2EAE75B46DB1B0C
:102CE0009B460B9B4C4699465346AA461D003A000C
:102CF0002B003100A0475B460137D85D0028F6D194
:102D00004B460B932B00A14655469A46C0E6C0237E
:102D10009B00A8781A4302355BE5C023A8781A43C4
:102D2000023556E520231A43103B0D9374E72B0020
:102D30004D469946ACE60B9BBB46984500D8ABE6A2
:102D400047445C46A8464D46FF1A220053460134CC
:102D500031002020A847BC42F7D1A94645469BE652
:102D60000B9A531C904500D822E24346DB199C1A6B
:102D70004B46A9461D003A0053460137310020203A
:102D8000A847A742F7D12B004D4699464346013349
:102D90000B935B461878002800D058E67CE6434643
:102DA000012B00D802E27C1E4444A8464D463A005E
:102DB0005346013731002020A847A742F7D1A94642
:102DC0004546099B220001CB31009846C0B25346CC
:102DD000C8474346671C09936C1CB2E4642800D1C1
:102DE000D7E619E708230D9316E70722099B073357
:102DF0009343013294469C44624609920CCB9C4614
:102E0000DB171093119310981199030053400E9300
:102E100064460B0063400F930E9B0F9C1B1A8C4162
:102E20000E930F946346DB0F139300239B46634678
:102E30001A433BD00B9A6123920600D54123DBB2A3
:102E40000A3B1293434610A91F228C460024159377
:102E50004B466244B1461497169527000E9C0F9D71
:102E600090460D9E17930CE03032D2B243460137A4
:102E7000DA55AB4500D177E1202F00D177E104008E
:102E80000D00320000232000290000F05BFAD2B2CE
:102E9000092AE9D9129B9C466244D2B2E6E7FF2296
:102EA000099908C913401A000991DCE60B9A10230E
:102EB0001100994300240B915205BBD50B9B06933F
:102EC000434605930A9B04930D9B0393139B029324
:102ED00018AB3A0001940093310053464846FEF780
:102EE00007FF6C1C07002CE413001B0600D458E1FC
:102EF000099B04CB1204120C934609936EE60B9ABD
:102F00006123920600D5412310A91F228C46DBB213
:102F100062440A3B139714965F461600AB46129321
:102F20000D9D08E03033DBB201343355AF421DD381
:102F3000202C1BD007002900380000F0C5F9CBB2C7
:102F40000929EFD9129A94466344DBB2ECE75B4659
:102F5000270009936C1CFFF7F4FB159B45465E4662
:102F60009846149FAAE702230D9355E65D46139FEA
:102F7000149E40E60722099B07339343013294468F
:102F80009C44624609921A685B6810009B461300D5
:102F90005A46134307D10B9A1033110099430B91F2
:102FA000520500D526E60B9A6123920600D54123EF
:102FB000DBB210A90A3B1F228C461293434662449F
:102FC0001397159500245D460700B34690460D9E65
:102FD00014930DE03032D2B2434601341A55002327
:102FE000AB4200D1D4E0202C00D1D4E007000D008A
:102FF000320000233800290000F0A4F9D2B2092AD7
:10300000E8D9129B9C466244D2B2E5E7099B1A00BC
:1030100008CA1592DA179C185440DA0F1492002B44
:1030200008D1802310220B99DB000B4091430B91B8
:10303000002B2BD10B9A6123920600D5412310A9B6
:103040001F228C46DBB262440A3B129713965F46FE
:103050001600AB4609930D9D08E03033DBB2013713
:10306000F355AC420ED3202F0CD0040029002000D1
:1030700000F02AF9CBB20929EFD9099A94466344A2
:10308000DBB2ECE75D46139EBB46129F0B9B3A00FA
:103090000693434605930A9B310004930D9B4846D3
:1030A0000393149B6C1C02935B46019318AB009333
:1030B0005346FEF71DFE159B07000993FFF741FBE2
:1030C000099B10CB1493002C08D18023DB00110046
:1030D0001340102291430B91002B2BD10B9A6123AB
:1030E000920600D5412310A91F228C46DBB2624410
:1030F0000A3B129713965F461600AB4609930D9D47
:1031000008E03033DBB20137F355AC420ED3202F49
:103110000CD004002900200000F0D6F8CBB2092919
:10312000EFD9099A94466344DBB2ECE75D46139EFF
:10313000BB46129F0B9B3A000693434605930A9B9E
:10314000310004930D9B48460393002302935B4692
:10315000019318AB00935346FEF7CAFD149B07007A
:1031600009936C1CFFF7EDFAA64200D884E6159B84
:103170000E940F959846179B3C004E46169D994617
:10318000149F9BE608C9D8171A18424009916AE5AE
:10319000BE4200D827E7149B5E469846139F159DB4
:1031A00029E5099B04CB9346099317E53C0008E603
:1031B0000B93F0E500B585B00391012102900093D7
:1031C000034813004A4202A9FFF796FA05B000BD72
:1031D000CD1E001010B5094A0300146884B0002CFD
:1031E00008D0012200910648524203A9A0470120BD
:1031F00004B010BD01F056F80020F9E72C170020AC
:10320000BD1E001001480421014B1847F01000209A
:1032100035320010142310B50100188804331B88C0
:10322000984710BD162310B50100188802331B887B
:10323000984710BDF8B54746CE4680B50F1E19D049
:1032400014239946043304000025012698464B4672
:103250001888434621681B88984701C4431E98413B
:10326000013540420640AF42F1D13000C0BCB94602
:10327000B046F8BD0126F8E7124A936F9B0815D2B5
:103280009066D166002905D0FFE7FFE7FFE7516FA1
:10329000106F704704B580210906C21751400028FD
:1032A00000D0C84301F028FA002104BDF0B5146E27
:1032B000556E576F166FFFF7E3FF14665566576735
:1032C0001667F0BD000000D0114A936F9B0813D21F
:1032D00010665166002905D0FFE7FFE7FFE7516F51
:1032E000106F704704B5002801D00020C04301F0E2
:1032F00003FA002104BDC046F0B5146E556E576F39
:10330000166FFFF7E5FF1466556657671667F0BD41
:10331000000000D094464A4A926F9208624601D259
:1033200028E0C046F0B5464E346E756E776F366F46
:1033300000F020F89446424A1466556657671667AF
:103340006246F0BD94463E4A926F9208624601D2B0
:1033500054E0C046F0B53A4E346E756E776F366FF6
:1033600000F04CF89446364A14665566576716675F
:103370006246F0BD002B24DB11D000293EDA00B5F7
:10338000C943404200D1013100F038F8C9434042FE
:1033900000D10131DB43524200D1013300BD002A8C
:1033A000EBD1002801D1002905D00020C90FC907A1
:1033B00001D1C043410800B501F096F90022002375
:1033C00000BD00B500290ADBDB43524200D10133C6
:1033D00000F014F8C943404200D1013100BDC94397
:1033E000404200D10131DB43524200D1013300F0B1
:1033F00005F8DB43524200D1013300BD002923D13F
:10340000002B18D1002A0CD0BC460D4F38667A66C6
:1034100000210023FFE7FFE7FFE77A6F386F674679
:103420007047002801D00748010000B501F05CF9A1
:103430000022002300BD02000B0000200021704785
:10344000000000D0FFFFFFFF002B00D0BFE0130CF7
:1034500028D1002AE7D080B4114F39667A66FFE799
:10346000FFE730B4040C7B6F396F1B0423433B66CA
:103470007A66FFE7FFE7FFE7C04684B27B6F3D6FE8
:103480001B0423433B667A66FFE7FFE7C046002341
:103490002C042D0C7A6F386F00196941B0BC70474D
:1034A000000000D0F0B594460025140E01D11202A0
:1034B0000835140F01D112010435940F01D1920087
:1034C0000235D40F01D152000135D40B0134254F00
:1034D0007C66254C3C660E0C93B2FFE7FFE7FFE7E6
:1034E0003C6F6643360C7703BE467343DF0B5B04C9
:1034F000C01AB941130C7343DB18C91ACE086643CE
:10350000360CB64493B273431F0F1B01C01AB94166
:10351000130C73431F0B1B05C01AB941860D8F0294
:103520003E436643360C092D24DB520A7243801A4F
:103530007703460A6643360C16235B1BDE40DF40EA
:10354000BF1964466643821B70460435063301008A
:10355000D940A840C01900D30131A24206D20023AD
:10356000F0BD0000000000D0FFFFFFFF121B013084
:10357000F3D3F1E709277F1BFE406446A2B27243F2
:10358000801A00D20139220C7243130C1204821AE1
:1035900099410B007046043513370100F940A840EB
:1035A000801900D30131002B02D1A2420AD2F0BD12
:1035B000013000D30131121BFAD2013BF8D1A242F3
:1035C00000D2F0BD013000D30131121BF7E7F0B596
:1035D0001C0C00D080E00CB400251C0A04D11B0296
:1035E000160E3343120208351C0B04D11B01160FB3
:1035F0003343120104359C0B04D19B00960F3343D7
:1036000092000235DC0B02D192185B4101351C009F
:10361000971864410134464F7C66464C3C660E0C5C
:10362000FFE7FFE7FFE7C0463C6F6643360C7703D2
:10363000BE4697B27743C01B00D20139C01B00D2EF
:1036400001399FB27743C91BC91B170C77437E040E
:10365000FF0B801BB941CE086643360C0C2D33DBC3
:10366000B644120B1F053A431B0B97B27743C01B9E
:1036700000D201399FB27743C91B170C77433E0430
:103680003F0C801BB941860D8F023E4366432927BC
:103690007F1BFE400C3D7746AF40BF1930BCA2B245
:1036A000ABB272437343801A9941220C7243130CDC
:1036B0001204801A994102000B000137001BA94136
:1036C000F9D2781E0021F0BD0C277F1BFE40774603
:1036D0007F0BAF40FF19E0E700245D1C07D0144FBB
:1036E0007D663966FFE7FFE7FFE7FFE73C6F95B2CE
:1036F0009EB265436643401BB141150C1E0C6543E9
:10370000664336042F0C3E432D04401BB1419942C1
:1037100004D202000B0020000021F0BD01D1904234
:10372000F7D3801A994101349942F2D3F6E70000A9
:10373000000000D0FFFFFFFF48404140484018B460
:103740001B4B5B68FC46019308BD04DFD7390010B2
:1037500018B4174B1B68FC46019308BD00DFE13924
:1037600000109446134A926F920809D2624618B428
:103770000F4BDB68FC46019308BD0CDF993C001041
:103780000C4AF0B5146E556E576F166F6246FFF710
:10379000EEFF084A1466556657671667F0BD18B401
:1037A000034B9B68FC46019308BD08DF3D3B0010BE
:1037B00068130020000000D0FFB550404240504048
:1037C00059404B40594000E0FFB5154F4C00640D87
:1037D00003D0BC4204D10C0314D80020090D090504
:1037E0005C00640D03D0BC4204D11C030AD8002243
:1037F0001B0D1B0501264B4009D44B4003D58B42C2
:1038000000D18242FFBD9942FCD19042FFBD0B43E3
:10381000DB1803431343F5D0C9434918FFBD00002B
:10382000FF07000000B5FFF7CFFF804100BDC04695
:1038300000B5FFF7C9FF01D9002000BD012000BD80
:1038400000B5FFF7B9FF01D9002000BD012000BD80
:1038500000B5FFF7B1FF804100BD012040054A00DF
:10386000121804D85A00121801D8002070470120FD
:1038700070470020704700000021002805D17047E4
:10388000C1174840401AFAD0C90713B5064B1B6848
:1038900098470CBC441CA2401005120B0349091B9D
:1038A00009051943114310BD581700201F040000DB
:1038B00010B54C00620D8023D218DB00D21A5B05D4
:1038C0007E2A10DD9E3A13DACC1709034908194302
:1038D0005242D140640001341532202A05DAD0402A
:1038E0000843604310BD002010BD0846604310BD72
:1038F000C80FC018013810BD18B4044B5B6AFC46F1
:10390000019308BD24DF493E001000006813002029
:10391000132370B51D78012D15D010DD1C48FFF75D
:1039200081FC1C4C01008022200000F055FB022D80
:1039300006D01948FFF76EFC184B186070BD154C87
:10394000174BA364F5E7164B124C23606360A3602A
:10395000E36023616361A361E36123626362A36245
:10396000E36223636363A363E36323646364A36425
:10397000E36423656365A365E36523666366A36605
:10398000E36623676367A367E367A364D1E7C04681
:1039900053440000681300204C33000058170020E7
:1039A000A539001007B5604601880A0A0230DF2AEF
:1039B000FAD1C9B2820804D30288408800041043B7
:1039C00000E00068014A5050039007BD68130020D2
:1039D0000FB403BC0CBCF0B50124E407634000E065
:1039E000F0B50C0DCF0F661E3605891B640503D399
:1039F000C943404200D30131640D03D0661CF60A6E
:103A000007D0E41B00207F00791C89078912803CC5
:103A100024031D0DDF0F6E1E36059B1B6D0503D3A2
:103A2000DB43524200D301336D0D03D06E1CF60A06
:103A300007D0ED1B00227F007B1C9B079B12803D63
:103A40002D032F1B661B58D4A446202E46DA2037A0
:103A50001400BC401D00BD40F24033412A43801891
:103A60005941CB0F05D0C943C043002264425041A5
:103A7000514162464D0D28D10D0D07D100281FD0B0
:103A8000241940414941013A0D0DF9D0640006D393
:103A9000013000D30131002C01D140084000013A2F
:103AA0000BD4941CE40A04D112051144DB07194419
:103AB000F0BDD907204B194300E0D9070020F0BD25
:103AC0000029DDD1002CDBD1F0BD0132C607400852
:103AD000CD0728434908002EE1D0D9E73C2E29DA4A
:103AE000203E40371400BC4000D00124F240144373
:103AF0001A00BB401C43D317ACE7AC46202F08DAB2
:103B000020360400B4400D00B540F8403941284348
:103B1000A5E73C2F0CDA203F40360400B44000D02B
:103B20000124F84004430800B1400C43C117EAE700
:103B300010001900002494E70000F07FF0B50C0D90
:103B4000661E3605891BE60A6405640D02D0651CF5
:103B5000ED0A04D0002001210905803C2403A4467D
:103B60001C0D671E3F05DB1BE70A6405640D02D0D0
:103B7000651CED0A04D0002201231B05803C2403B0
:103B80007740644497B484B296B27443070C7E4382
:103B9000150C6F4380B26843361802D3012000042D
:103BA0003F183004350C00197D41844688B29AB222
:103BB00050430C0C62431F0C7C438EB27E4392191F
:103BC00002D301263604A4191604170C36186741CF
:103BD00001BC81B29AB25143040C62431B0C5C439A
:103BE00080B25843121802D3012000042418100494
:103BF000130C401863412D185E410020474106BC5C
:103C000088B293B258430C0C6343120C544389B2EC
:103C100051435B1802D301210904641819041A0CDA
:103C2000091862416D1856410020474118BCF9023D
:103C3000720D1143F0026A0D1043ED020A0D03D11B
:103C40006D1940414941013B124E9B1B7600B34226
:103C50000ED26D0007D30130002671416646354310
:103C600001D1400840001B05C918E4072144F0BDFC
:103C70000BDA013306D1013004D101314F0D01D0EF
:103C80004908F2E7E1070020F0BD013631050020C8
:103C9000EBE70000FF030000F0B51C0D671E3F05B9
:103CA000DB1BE70A6405640D02D0661CF60A04D02B
:103CB000002201231B05803C2403D0252D0600266D
:103CC000F6432E661E096E66CE0FF619B4464900FD
:103CD0004F0D02D07E1CF60A03D000200021403F89
:103CE0003F033E1BB600B444013F7F05C91B490892
:103CF0002E6F013676089C02950D25437543ED1312
:103D00007543AD1301356D10F603761B0CB4CC0270
:103D1000450D2C43A2B2B3B25A43270C7B43350C5A
:103D20006F43A4B26C431B1902D3012424043F192E
:103D30001C041D0CA4187D4124196D41009A91B2F8
:103D4000ACB26143170C7C432B0C5F4392B25A43D5
:103D5000A41802D301221204BF182204230C521803
:103D60007B41019C6C431B19520ED9010A4344014B
:103D7000A01A81B2B2B2514303145A43360C7343B2
:103D800087B27743D617D21900277E4136049B1994
:103D90001704160C7F185E417316ED18F301002608
:103DA00080337541A90F06D16400690AE8055B0AF2
:103DB000184309D22FE00422944480337541A90AA4
:103DC000A8059B0A184326D3404149412404009A80
:103DD000019B0D005543641B4343E41A95B286B220
:103DE0007543170C7E43030C5F4392B25A43B618D7
:103DF00002D301221204BF183204330C52197B4142
:103E000052429C41002C02D4002201305141400812
:103E1000CA071043490802B06246D7079210084B00
:103E2000D218084B9A4203D212058918C919F0BD5D
:103E30000020002A01DC3900F0BD01331905F5E747
:103E4000FD030000FE070000002200B5203200F054
:103E500004F8080000BD000000220B150AD410B5BC
:103E6000944600F031F81414013400DA0021CB1725
:103E7000144C20470020002170476244343A0CD48F
:103E80000C2A07DA04009140904052422032D4407C
:103E9000214310BDD843D94310BD203207D40C466E
:103EA0009440524220321141D040204310BD0800BE
:103EB000C917203203D452422032104110BD1800DD
:103EC000190010BD7B3E00100A0DCC0F531E1B05C0
:103ED000C91A520503D3C943404200D30131520DE0
:103EE00003D0531CDB0A07D0121B00206400611CA6
:103EF00089078912803A1203014BD21A70470000D9
:103F0000FF03000051434343C9188C46110C83B290
:103F10004B4310B4040C614392B280B250436243ED
:103F20001C041B0C001910BC59411304120CC018BE
:103F30005141614470470000132310B512481C78AA
:103F4000FFF770F90100012C0AD003DD80220F4831
:103F500000F042F80E48FFF75DF90E4B186010BDF7
:103F60000A4C5422200000F037F80B4B6365A36520
:103F7000E36523666366A366E36623676367A367F7
:103F8000E3672362E361E5E753460000681400201D
:103F90004C330000581700209D3F001007B56046C5
:103FA00001880A0A0230DF2AFAD1C9B2820804D392
:103FB000028840880004104300E00068014A505025
:103FC000039007BD6814002001480421014B1847E5
:103FD0000011002035320010014B5B6818470000CB
:103FE00000110020030010B5080011001B6898475D
:103FF00010BDC046F0B546464F46D646C0B5437DD7
:1040000080460E001700002B46D0002A3FDD4B1ED5
:104010009946244B0125002400209A460DE04B468A
:104020001B5D0D3B5A425341325DDBB20A2A0BD075
:104030002B00013401359F421ADD002CEFD143469D
:10404000325D1B7D0A2AF3D1002BF1D1A04204DAA4
:104050004346211A1B6830189847434650461B6850
:1040600002219847013428002B0001359F42E4DCEF
:10407000874204DD4346391A1B6830189847F61901
:10408000013E33780D3B5A42534142461375E0BC22
:10409000BA46B146A846F0BD036811003000984703
:1040A000F5E7C046184A0010F0B5C6460B68060092
:1040B0000C0000B5802B06D05A1C2260E418267133
:1040C00080BCB846F0BD0F4B1D68002D16D00B1DEF
:1040D00098460D4F02E02D69002D0FD02B68002B64
:1040E000F9D03B68002B01D0AB42F4D12800414607
:1040F0002268FFF77FFF2D69002DEFD101220023F9
:10410000DBE7C0462017002028170020F0B5DE4668
:1041100057464E464546E0B585B017001C000600E0
:104120000D00FCF76FFF0023314A12184B4180212C
:1041300009068B4202D301222E4B52422E4908001F
:104140008A4600F0E1FA01906B1C03D1300000F0C8
:1041500049FA0500002C25D1284B9846284B1C68AD
:10416000002C15D0002F20D1264F02E02469002C0E
:104170000ED02368002BF9D03B68002B01D0A3425E
:10418000F4D120002A003100C0472469002CF0D16E
:10419000019B002B27D105B0F0BCBB46B246A94617
:1041A000A046F0BD184B9846D8E7164B994602AB8F
:1041B000DF1D0A239B4602E02469002CE8D0236817
:1041C000002BF9D04B461B68002B01D0A342F3D142
:1041D0002A0031002000C0475B4601223900200040
:1041E0003B70C047E8E7504600F076FAD3E7C04698
:1041F00040420F00FFFFFF7F4C120020F53F0010F0
:104200002017002028170020E53F0010F0B5CE460B
:10421000474680B583B06B460600DD1D2870FCF76D
:10422000F1FE00231A4A12184B41802109068B42E5
:1042300002D30122174B524217490800884600F06A
:1042400063FA164B81461C68002C14D0144F02E010
:104250002469002C0FD02368002BF9D03B68002B79
:1042600001D0A342F4D1200001222900FFF7C2FEB1
:104270002469002CEFD14B46002B05D1300003B050
:10428000C0BCB946B046F0BD404600F025FAF5E79F
:1042900040420F00FFFFFF7F4C120020201700203C
:1042A0002817002070B5040000F09CF900230100DD
:1042B000050001222000FFF729FF084B1C68002C95
:1042C00006D06368002B05D098472469002CF8D1EC
:1042D000280070BD2469002CF3D1F9E720170020D5
:1042E0000A4A1368002B05D10CE01A001B69103232
:1042F000002B07D09842F8D1002902D1036913603E
:10430000016170470029FCD01060FAE720170020F7
:10431000F0B5CE46474680B5A3B004000D00FCF7CB
:1043200071FE0023294A12184B41802109068B4255
:1043300002D30122264B5242264F380000F0E4F906
:1043400000230600019322002B00234801A9FEF759
:1043500031FF019B8046002B14D1204B1C68002CA0
:1043600006D06368002B0BD098472469002CF8D145
:10437000002E25D1404623B0C0BCB946B046F0BDA2
:104380002469ECE7154B1D689946002D1CD0144C90
:1043900002E02D69002D0FD02B68002BF9D0236887
:1043A000002B01D0AB42F4D12800019A02A9FFF7FB
:1043B00021FE2D69002DEFD14B4601951C68CEE7FB
:1043C000380000F089F9D5E70195D1E740420F00A8
:1043D000FFFFFF7F4C120020A94000102017002093
:1043E000281700200FB400B583B004A901C90191BA
:1043F000FFF78EFF03B008BC04B0184710B500F0FB
:10440000C5F8012010BDC046F0B50D1E15DD0E4BE0
:104410000E491A680E4B0D27D3185C4263415B00AE
:104420005E5E202145190478A64207D0936919429F
:10443000FCD101301460A842F5D1F0BD9369194256
:10444000FCD11760F2E7C0467417002070170020F7
:104450000080FCBF30B50500002925DD00201024B8
:104460001B4B013D1A6893691C4218D101309369B6
:104470001C42FCD113682B548142F4D1154B1B68AC
:10448000002B0BD0502338219363536B34321940E7
:1044900080235B0113431960002815D030BD0D4BFC
:1044A0001B68002BEED1F7E70A4B1B68002B0BD0E3
:1044B00050223821064B1B689A635A6B34331140E3
:1044C000802252011343196003204042E6E7C046B0
:1044D00074170020B0160020064B10B51B68002B87
:1044E00006D00021044A12689163044A1068984774
:1044F00010BDC046B016002074170020B41600206E
:104500001D4BF0B51A68C64698461C4B0E00D318D2
:1045100059424B411A4F14331C00050000B53B684B
:10452000002807D0002B11D0164B3D601E6080BCC8
:10453000B846F0BD002BF7D0906300212000FBF7B8
:10454000D5FF20001049FCF715F8EDE720000E49D3
:10455000FBF7E6FF01212000FBF7C8FF434650228E
:1045600038211B689A635A6B343311408022520100
:1045700013431960D8E7C046741700200080FCBFC1
:10458000B0160020B4160020D94400100C4B10B512
:104590001B780C4B0C4C1B780C4B02210020236029
:1045A000FBF718FF02210120FBF714FFE12120682F
:1045B0004902FDF719F801210548FFF791FE10BDEA
:1045C000444B0010484B001074170020004003407B
:1045D00010110020062010B500F032F80120FDF780
:1045E00013FBC04610B583070AD00300032102E085
:1045F00001330B4205D01A78002AF9D1181A10BDE0
:10460000030019680C4A0D4C8A188A4322420FD1C4
:104610005968094A04338A188A43224208D15968E2
:10462000054A04338A188A432242F1D000E001335C
:104630001A78002AFBD1E1E7FFFEFEFE8080808031
:10464000164B70B504001D681F2821D88C235B0011
:10465000EB58002B0DD082009B181A68002A08D056
:10466000012A13D0511C0DD0002119609047002061
:1046700070BD280000F028F822000100280000F09A
:104680000FF8F5E7162301202B60F1E70020EFE794
:10469000162301202B604042EAE7C0464812002062
:1046A000002370B5074D0400080011002B60FDF7D2
:1046B000AFFA431C00D070BD2B68002BFBD02360E9
:1046C000F9E7C0462417002010B5FDF79FFA10BD8A
:1046D000F8B5C0460000000001B40248844601BCA1
:1046E000604700BF5D01002001B40248844601BC60
:1046F000604700BF8501002001B40248844601BC28
:10470000604700BF8501002001B40248844601BC17
:08471000604700BFC10000205A
:104718005374617274000000427574746F6E207077
:10472800726573732E204C45442073746174653A26
:104738002025640A00000000427574746F6E2070B2
:104748007265737320322E204C4544207374617453
:10475800653A2025640A00004861726477617265D1
:1047680020616C61726D20256420616C72656164E2
:104778007920636C61696D65640000000A2A2A2A41
:104788002050414E4943202A2A2A0A000A000000E4
:10479800486172642061737365727400666E692B78
:1047A80000000000666E69006E616E00666E692D1D
:1047B80000000000C02700107227001072270010A8
:1047C800B8270010722700107227001072270010F7
:1047D800722700107227001072270010722700102D
:1047E800B027001072270010A827001072270010A9
:1047F80072270010A0270010DC280010D227001014
:10480800D0280010D2270010BE280010D227001090
:10481800D2270010D2270010D2270010D22700106C
:10482800D2270010D2270010C8270010D227001066
:10483800D2270010D2270010D2270010D22700104C
:10484800C82700102029001016280010162800106C
:104858001628001016280010162800101628001018
:104868001628001016280010162800101628001008
:1048780016280010162800101628001016280010F8
:1048880016280010162800101628001016280010E8
:1048980016280010162800101628001016280010D8
:1048A80016280010162800101628001016280010C8
:1048B80016280010162800101628001016280010B8
:1048C80016280010282B0010EC280010282B0010A8
:1048D8001628001016280010162800101628001098
:1048E8001628001016280010162800101628001088
:1048F8001628001016280010162800101628001078
:104908001628001016280010162800101628001067
:10491800722B0010162800101628001016280010F8
:104928001628001016280010162800101628001047
:104938001628001016280010722B001034290010B9
:10494800722B0010282B0010EC280010282B0010C8
:10495800000000000000F03F0000000000002440BC
:1049680000000000000059400000000000408F4097
:10497800000000000088C34000000000006AF84002
:104988000000000080842E4100000000D012634126
:104998000000000084D797410000000065CDCD419C
:1049A80052656C6561736500626F6F74325F773250
:1049B8003571303830000000302E3100312E352E60
:1049C800310000007069636F00000000426C696E7E
:1049D8006B0000004E6F76203130203230323300C9
:1049E80006005250BBFF3CB6CC490010060052509E
:1049F8003ABCA911C049001006005250E182887FD4
:104A0800B049001006005250D3F07542A849001072
:104A18000D0A00005541525420737464696E0000F9
:104A280055415254207374646F7574005541525443
:104A380020737464696E202F207374646F7574001A
:104A48000600525053B4F4A1344A001008005250E2
:044A580092000000C8
:104A5C0072B20181B0AB308000000000800801818F
:104A6C00B0B0ABF0000000003F020181B0AB308071
:104A7C000000000080060181B0B0ABF00000000027
:104A8C007CB8FF7FAB10808040B9FF7F0100000035
:104A9C00A0B7FF0FB0A902802CB8FF0FB0B0A88050
:104AAC0080B8FF0F0100000088B8FF0FB0B0AA80DB
:104ABC00BCB8FF0F9CFFFF7F7CB9FF0FAA3F37806C
:104ACC00C4B9FF0FB0B0A880D0B9FF0FB0B0AA80A6
:104ADC0010BAFF0FB0B0A88024BAFF0F010000007D
:104AEC00B4BAFF0FAA0DB28018BBFF0F70FFFF7F87
:104AFC0000BEFF0FB0B0A8801CBEFF0F6CFFFF7F85
:104B0C00C8C0FF0F0100000038C2FF0F68FFFF7F15
:084B1C0020C5FF0F010000009D
:104B2400AC020010A002001094020010E84900102A
:104B340088020010F4490010004A00100C4A0010CA
:084B4400484A0010544A001019
:104B4C00F0B5C646150000B504001E000268EFF370
:104B5C00108172B61368002BFCD0BFF35F8F042357
:104B6C00E356002B2DDB2268BFF35F8F0020106013
:104B7C0081F31088D0221206127852B290469A42D3
:104B8C0003D1002080BCB846F0BD00270BE02368A1
:104B9C00BFF35F8F1F6081F310882800310000F095
:104BAC008FFF0028EDD12268EFF3108172B61368E5
:104BBC00002BFCD0BFF35F8F23797F2BE7D94346C3
:104BCC0002E0D0231B061B6823712368BFF35F8FA1
:104BDC0000221A6081F310880120D3E70268EFF3FA
:104BEC00108172B61368002BFCD0BFF35F8FFF23CC
:104BFC0003710368BFF35F8F00221A6081F3108882
:104C0C0040BF70477047C04603685A0004D58022E5
:104C1C0012061343C01870475B005B08FAE7C046E6
:104C2C00F8B557464546DE464E469046E0B5070079
:104C3C00002924D04B1E9A46994600239B465B467E
:104C4C004B44DC0FE4186410E5007E193000FFF7CC
:104C5C00DBFFA2450CD040450CD828000830381892
:104C6C00FFF7D2FF013840450AD2631C9B46E6E7AA
:104C7C00404505D9A34502D0631E9946DFE70026BF
:104C8C003000F0BCBB46B246A946A046F8BDC046B3
:104C9C000300012805D0022807D00020002B02D0E9
:104CAC0070470348FCE70348FAE70348F8E7C046B7
:104CBC0009090020FD0800201509002030B5214B02
:104CCC00050083B08C1E002B26D0200001A900E02B
:104CDC0000BF00281DD001992200FFF7A1FF041E80
:104CEC0017D0FFF791FF6368A864012B27D0201D14
:104CFC00002B22DBFFF788FF00232B650368E86499
:104D0C00002B0FDBFFF780FF030000202B6103B0AB
:104D1C0030BD00230920F9E70B4B0C481B1AD910A6
:104D2C000191D9E71801000FFFF7B2FF424242414F
:104D3C000300092052421040E8E70123DDE700237D
:104D4C000520E3E700000000244B00108C4A001003
:104D5C00036810B50400DA0705D49B070AD5483060
:104D6C0000F092FC23685A070AD51A070FD5DB0608
:104D7C0015D510BD483000F083FC23685A07F4D4D5
:104D8C002000D03000F084FC23681A07EFD42000F8
:104D9C005130FF3000F080FC2368DB06E9D42000A2
:104DAC00D130FF3000F07CFCE3E7C0460300006824
:104DBC00002800D0C01870477047C04670B504007A
:104DCC000D002000296CFFF779FF002811D12B6C06
:104DDC002A00636121000120236998470828F0D03C
:104DEC00072806D10020296CFFF7E6FF281D00F0EC
:104DFC0031FC00F06DFEC046F0B5CE46474680B59E
:104E0C00C3682E4C9946A5448369040015000431EF
:104E1C00402203A8984600F063FE0023029323E08F
:104E2C00F022129B5200636102A97AA800F058FE8E
:104E3C002100300023697AAA9847889B06001393B7
:104E4C004346019302AB009322002300290001206A
:104E5C00C84700281FD1F0227AA9520002A800F0FE
:104E6C003FFE0025082E1FD120001299FFF726FFC8
:104E7C0009350700EEB20028D2D0109B10211393F5
:104E8C004346019302AB00932200230001203143DF
:104E9C00C847002800D009273800F3239B009D4405
:104EAC00C0BCB946B046F0BD072EF4D1280012990B
:104EBC00FFF782FF03A800F0CDFBC04634FCFFFFD8
:104ECC0070B5CB6BF8B00B6405000E0040220431BA
:104EDC0001A800F005FE01235B42009306E06A4640
:104EEC0029002B6998470400082808D1280010993C
:104EFC00FFF7E4FE0028F2D0092078B070BD6846B8
:104F0C00FFF726FF062CF7D131002800FFF756FFDC
:104F1C0010B58261DA6BC1601A6419000022FFF7C8
:104F2C006BFF10BD436970B50B64C36804000D00C2
:104F3C00002B13D10A0003690100022098470728AF
:104F4C0005D008280FD129002000FFF737FF0020DB
:104F5C00296CFFF731FF281D00F07CFB0122FFF7C5
:104F6C004BFF00F0B5FD00F0B3FDC046C36810B5B3
:104F7C00002B05D0CB6B00220B64FFF73DFF10BD5F
:104F8C00FFF79EFFFBE7C046012915D00AD8002B7E
:104F9C0010D10F2A0ED8920080184368009A002076
:104FAC00136006E001200339C9B2884280414042B7
:104FBC00013070470220FCE70120FAE700B585B00C
:104FCC0003AB0A00009300210023FFF7DDFF0398D9
:104FDC0005B000BD012915D00AD8002B10D10F2A1D
:104FEC000ED8009B92001B6880184360002006E0DE
:104FFC0001200339C9B288428041404201307047D8
:10500C000220FCE70120FAE700B585B003AB039260
:10501C0000930A0000230021FFF7DCFF05B000BD60
:10502C0070B5194CD36BA544136405000C0017A87C
:10503C00111D402200F054FD01235B42169313E036
:10504C000C2116A86A46FFF7DFFF210016A8A84717
:10505C0000280FD16946049B16AA08309847060011
:10506C00052808D0092805D068462699FFF726FEA2
:10507C000028E5D0092616A8FFF76AFE30008E231B
:10508C009B009D4470BDC046C8FDFFFFF0B54E4669
:10509C00994645465746DE46032392464A46E0B5B6
:1050AC00CD6C89B00340009308CD88460695002A44
:1050BC0000D181E01A0C1B040593FF2313409B00C5
:1050CC00ED18022304A94A7304AA1373009B022B44
:1050DC0001D143469D6B43461B6DDB070FD55046F4
:1050EC0005A900F073FB002801D1082000E009207D
:1050FC0009B0F0BCBB46B246A946A046F0BD2F682D
:10510C00002FECD0082303400293002301930133BA
:10511C0054469B464646BA464B46022B49D02B88F2
:10512C006F889A46043559463B008B439846B26CBF
:10513C000F2120009044FFF741FF0023804506D843
:10514C0053465A469343434498429B415B42022246
:10515C007F001740594652460A401743012F31D061
:10516C00022F4DD0002FC2D1009A002A02D0002B62
:10517C0000D09DE004352B689A46002BCCD1200042
:10518C0005A9A24600F022FB0028B0D1019B002B00
:10519C00ABD00F215046FFF711FF0E2102005046F5
:1051AC00FFF732FF50460F21734AFFF72DFF072000
:1051BC009EE76F680835B6E71B02059304AB5A737C
:1051CC00032381E7009A002A49D1002B16D02F68BF
:1051DC006B68FF0F9A1C00D189E732005832049299
:1051EC00013300D1B7E0281DFFF7E0FD3A000100C4
:1051FC0004AB300000E000BF00286DD10835BAE7E1
:10520C002A6857009046009A7F08002A0ED1002B7E
:10521C0004D0029B002B71D0002F3BD04346002BB7
:10522C0000DA04350137BF00ED19A4E7336A0D210C
:10523C0020009A46FFF7C2FE8245EFD1B36A9D4229
:10524C00ECD10023F362043333632B1DB762736319
:10525C002B68002B00DA89E001230193E2E70D2192
:10526C002000376AFFF7AAFE8742C7D1B36A9D4276
:10527C00C4D1B046A2462800FFF7C6FC0F2102009D
:10528C005046FFF7C1FE504642460021FFF7BCFED8
:10529C0007202DE7B046A2460D215046FFF78EFEA3
:1052AC00434642461862049B0620536295621FE7F0
:1052BC002800FFF7A9FC0435A246B56304003000B2
:1052CC0000E000BF002800D111E7504622000F215A
:1052DC00FFF79AFE07200BE7A2460D21040050466B
:1052EC00FFF76CFEB0463062022C3DD1049B2C368D
:1052FC003360434606205E629D62F9E62B1D9A469A
:10530C000023984658339C4621004A46B4445446E0
:10531C00A9468A463D0003924746E0460EE04346C6
:10532C0020000493FFF742FD0022010004AB300083
:10533C0000E000BF01370434002804D1AF42EED1A5
:10534C004D46B046A8E72F004D46039B5446994660
:10535C002B68984662E7B0460D2120001600FFF737
:10536C002DFE43461862C4E7049EC2E7781C8000F9
:10537C00B046A24628187FE70000000010B50023B5
:10538C00FFF784FE10BDC04610B50123FFF77EFE6B
:10539C0010BDC04610B50223FFF778FE10BDC04605
:1053AC00F0B5CE46474680B5060014001D00C3B0CC
:1053BC0003297DD059D8002900D181E0012979D168
:1053CC00130C14049846240C012D00D1B2E0052DC9
:1053DC0070D11B19202B6DD842460F2A00D8CAE079
:1053EC00A146002C00D0D8E00F2B3CD8012233680A
:1053FC001A4207D0934302223000134333604830E3
:10540C0000F044F9B06B20AF002C2CD0002399464F
:10541C0043460022D9007918E40083588B5004329B
:10542C009442FAD14B460019002B00D1DBE06F46B9
:10543C004146102900D210214B4600221039C900D8
:10544C007918DC0083588B5004329442FAD100193D
:10545C00012D00D1D7E04346B0630F2B00D8DBE021
:10546C00380000F015F9002025E0042922D1002B8A
:10547C0020D1102A1ED8102203681A4200D0A4E0B2
:10548C0020AF380000F00EF9012539000023B26B73
:10549C0028009840044201D001CA0860013304314D
:1054AC00042BF5D13800B26300F0FAF8002002E0CA
:1054BC00032B1CD0022043B0C0BCB946B046F0BD93
:1054CC00002BF7D1002301271004B26B000C311D07
:1054DC003D009D40284201D020CA0D6001330431AB
:1054EC00102BF5D10020A404E5D4B263E3E7140437
:1054FC00150C240C2B19102BDCD8082203681A422B
:10550C006AD120AF380000F0C9F8ED00B36B002C65
:10551C000AD0ED1AE4002A1F1C19BA1819000968E0
:10552C0004339950A342F9D13800B36300F0B4F8B6
:10553C000020C0E71B19102BBCD843460F2BB9D841
:10554C0033681D4206D00322300093433360483049
:10555C0000F098F820AF380000F094F80023B06BFE
:10556C009946002C00D053E70430B063380000F0AB
:10557C0087F800209FE7102B50D9102252429146F9
:10558C0099443368194209D0012230009343013207
:10559C0013433360483000F079F8336804221A4220
:1055AC0033D143460F2B03D820AF380000F06EF8F0
:1055BC006F46380000F06EF810244346B06BE41AC6
:1055CC00002C00DC34E720AF22E793430360D1309A
:1055DC00FF3000F067F853E7934303605130FF301E
:1055EC0000F05CF88DE7012DBED04346B0630F2B65
:1055FC0000D938E7380000F047F84B46002B00D1B3
:10560C0031E76F462CE720AFAEE7300093433360B1
:10561C00D03000F03FF8C4E720AFEBE733680B4223
:10562C0015D0012230009343921813433360483055
:10563C0000F02CF820AF380000F028F8B06B002CEC
:10564C0000D0E3E6380000F01FF8002033E70F2A03
:10565C00F0D9D7E60100343138C9043B9C461D60B3
:10566C00A646010020313CC990469946A246AB465D
:10567C0001000831FCC941680068E54600BDC04620
:10568C007047C0467047C0467047C0467047C0461A
:10569C007047C0467047C0467047C0467047C0460A
:1056AC007047C0467047C04601B401A801B585B02B
:1056BC00FFB408A841464A4653465C4665463EC080
:1056CC0001A83EC80F98009000230CB401A9FFF765
:1056DC00F7FB109B12B0184701B401A801B585B0B7
:1056EC00FFB408A841464A4653465C4665463EC050
:1056FC0001A83EC80F98009000230CB401A9FFF735
:10570C0011FC109B12B0184701B401A801B585B06B
:10571C00FFB408A841464A4653465C4665463EC01F
:10572C0001A83EC80F98009000230CB401A9FFF704
:10573C001DFC109B12B0184701B401A801B585B02F
:10574C00FFB408A841464A4653465C4665463EC0EF
:10575C0001A83EC80F98009000230CB401ABFFF7D2
:10576C00D7FB109B12B0184701B401A801B585B046
:10577C00FFB408A841464A4653465C4665463EC0BF
:10578C0001A83EC80F98009000230CB401AAFFF7A3
:10579C0047FC109B12B01847027A0300002A0BD169
:1057AC00427A002A0FD0013A42724268111D4160C0
:1057BC0003211268017202E0013A02720268100EB3
:1057CC0012021A607047B020FCE7C046F0B54E4696
:1057DC0045465746DE460023E0B587B003930F33AA
:1057EC009846083B994680231B0305000E009A46F9
:1057FC003000FFF7D1FF0700B02800D1B8E0030656
:10580C0029D5030042469343DBB2802B4BD0902B1F
:10581C0035D0A02B63D0B02B00D176E0C02B00D1BB
:10582C008CE003004A469343DBB2D02B0AD153469B
:10583C00024001321A43052301212800FFF7B0FD75
:10584C000028D5D00924200007B0F0BCBB46B246D6
:10585C00A946A046F0BDFF2382001340043305ACDB
:10586C009B460D220023002128000094FFF78CFB9F
:10587C00059B7F0630D55A469B1A05930BE0833B5C
:10588C0003400D2BDED005AC024000230021280084
:10589C000094FFF779FB00230D22002128000094CF
:1058AC00FFF798FBA4E707023000FFF775FF802491
:1058BC0038432402A042C5D007010005020C002386
:1058CC0000212800FFF76CFD0028BBD1274200D136
:1058DC008EE7012303938BE75B440593DBE7FF2300
:1058EC004A461B011900824311410A001A403F0726
:1058FC0002D58023DB011A43002300212800FFF787
:10590C004FFD002800D173E79CE7B12844D0B228A2
:10591C0000D19EE0B32854D0FC230340B42B91D08B
:10592C004A465346024001321A4301210123280002
:10593C00FFF736FD002800D15AE783E7C6284BD085
:10594C00C7285DD003004A469343DBB2C02B6CD012
:10595C00C82871D0C92800D074E73000FFF71CFFAD
:10596C00F02203031203134042460240013261E766
:10597C00039B0024002B00D065E705AE0E2200210E
:10598C0028000096FFF700FB00230F2200212800BF
:10599C000096FFF71FFB56E73000FFF7FDFE021ED7
:1059AC0000D14FE7030041468B43DBB2002B00D004
:1059BC0048E700212800FFF7F3FC002800D117E787
:1059CC0040E73000FFF7E8FEF02203031203134018
:1059DC00424602400132A7E73000FFF7DDFEF0221D
:1059EC000303120313404246024001321A430323BD
:1059FC0003212800FFF7D4FC002800D1F8E621E7AA
:105A0C003000FFF7C9FE021E00D11BE70300414620
:105A1C008B43DBB2002B00D014E704212800FFF7E6
:105A2C00BFFC002800D1E3E60CE74346A0221F4050
:105A3C00013712033A43DAE73000FFF7ADFE434675
:105A4C0002009A43D2B210321840120301300243C2
:105A5C00F1E605AC00230D22002128000094FFF78D
:105A6C0093FA3000FFF798FE0223059F9B4603062E
:105A7C0010D523005C469B467F231840A0403F185E
:105A8C00300005970734FFF787FE0306F4D45B4616
:105A9C00A3461C007F235A46034093408122920068
:105AAC0094466744DB19F83A05930021002328003B
:105ABC000094FF3AFFF78EFA9AE6C0460000000009
